:020000040800F2
:10000000005000201D410008853B0008873B000888
:10001000893B00088B3B00088D3B00080000000076
:100020000000000000000000000000008F3B0008FE
:10003000913B000800000000933B0008953B00083E
:1000400065410008654100086541000865410008F8
:1000500065410008654100086541000865410008E8
:1000600065410008654100086541000865410008D8
:1000700065410008654100086541000865410008C8
:1000800065410008654100086541000865410008B8
:1000900065410008654100086541000865410008A8
:1000A0006541000865410008654100086541000898
:1000B00065410008654100089D3B00086541000856
:1000C0006541000865410008654100086541000878
:1000D0006541000865410008654100086541000868
:1000E0006541000865410008654100080000000006
:1000F0000000000000000000000000000000000000
:0C01000000000000000000005FF808F1A3
:1001100010B5054C237833B9044B13B10448AFF341
:1001200000800123237010BD400A00200000000061
:1001300080F7000808B5034B1BB103490348AFF330
:10014000008008BD00000000440A002080F700087D
:1001500081F0004102E000BF83F0004330B54FEA78
:1001600041044FEA430594EA050F08BF90EA020FE5
:100170001FBF54EA000C55EA020C7FEA645C7FEA78
:10018000655C00F0E2804FEA5454D4EB5555B8BF9B
:100190006D420CDD2C4480EA020281EA030382EA0C
:1001A000000083EA010180EA020281EA0303362D9E
:1001B00088BF30BD11F0004F4FEA01314FF4801C71
:1001C0004CEA113102D0404261EB410113F0004F83
:1001D0004FEA03334CEA133302D0524263EB43033A
:1001E00094EA050F00F0A780A4F10104D5F1200ED8
:1001F0000DDB02FA0EFC22FA05F2801841F1000133
:1002000003FA0EF2801843FA05F359410EE0A5F106
:1002100020050EF1200E012A03FA0EFC28BF4CF037
:10022000020C43FA05F3C01851EBE37101F00045ED
:1002300007D54FF0000EDCF1000C7EEB00006EEBFA
:100240000101B1F5801F1BD3B1F5001F0CD3490884
:100250005FEA30004FEA3C0C04F101044FEA4452DB
:1002600012F5800F80F09A80BCF1004F08BF5FEA62
:10027000500C50F1000041EB045141EA050130BD42
:100280005FEA4C0C404141EB0101013C28BFB1F554
:10029000801FE9D291F0000F04BF01460020B1FA9F
:1002A00081F308BF2033A3F10B03B3F120020CDA72
:1002B0000C3208DD02F1140CC2F10C0201FA0CF050
:1002C00021FA02F10CE002F11402D8BFC2F1200CB5
:1002D00001FA02F120FA0CFCDCBF41EA0C0190406B
:1002E000E41AA2BF01EB0451294330BD6FEA0404B4
:1002F0001F3C1CDA0C340EDC04F11404C4F120029F
:1003000020FA04F001FA02F340EA030021FA04F3B0
:1003100045EA030130BDC4F10C04C4F1200220FA07
:1003200002F001FA04F340EA0300294630BD21FA45
:1003300004F0294630BD94F0000F83F4801306BF0B
:1003400081F480110134013D4EE77FEA645C18BFFF
:100350007FEA655C29D094EA050F08BF90EA020F96
:1003600005D054EA000C04BF1946104630BD91EA8E
:10037000030F1EBF0021002030BD5FEA545C05D191
:100380004000494128BF41F0004130BD14F58004D0
:100390003CBF01F5801130BD01F0004545F0FE4144
:1003A00041F470014FF0000030BD7FEA645C1ABF79
:1003B000194610467FEA655C1CBF0B46024650EAB0
:1003C000013406BF52EA033591EA030F41F40021DC
:1003D00030BD00BF90F0000F04BF0021704730B562
:1003E0004FF4806404F132044FF000054FF0000137
:1003F00050E700BF90F0000F04BF0021704730B5F8
:100400004FF4806404F1320410F0004548BF4042CC
:100410004FF000013EE700BF42004FEAE2014FEA21
:1004200031014FEA02701FBF12F07F4393F07F4FFC
:1004300081F06051704732F07F4208BF704793F0FF
:100440007F4F04BF41F40021704730B54FF4607412
:1004500001F0004521F000411CE700BF50EA010215
:1004600008BF704730B54FF000050AE050EA0102BE
:1004700008BF704730B511F0004502D5404261EB2E
:1004800041014FF4806404F132045FEA915C3FF46F
:10049000D8AE4FF003025FEADC0C18BF03325FEA0C
:1004A000DC0C18BF033202EBDC02C2F1200300FABD
:1004B00003FC20FA02F001FA03FE40EA0E0021FAE2
:1004C00002F11444BDE600BF70B54FF0FF0C4CF4D0
:1004D000E06C1CEA11541DBF1CEA135594EA0C0F82
:1004E00095EA0C0F00F0DEF82C4481EA030621EABD
:1004F0004C5123EA4C5350EA013518BF52EA0335F8
:1005000041F4801143F4801338D0A0FB02CE4FF0A9
:100510000005E1FB02E506F00042E0FB03E54FF0D9
:100520000006E1FB03569CF0000F18BF4EF0010ED1
:10053000A4F1FF04B6F5007F64F5407404D25FEACD
:100540004E0E6D4146EB060642EAC62141EA555180
:100550004FEAC52040EA5E504FEACE2EB4F1FD0CC2
:1005600088BFBCF5E06F1ED8BEF1004F08BF5FEA40
:10057000500E50F1000041EB045170BD06F00046F2
:1005800046EA010140EA020081EA0301B4EB5C049F
:10059000C2BFD4EB0C0541EA045170BD41F4801197
:1005A0004FF0000E013C00F3AB8014F1360FDEBFBC
:1005B000002001F0004170BDC4F10004203C35DA98
:1005C0000C341BDC04F11404C4F1200500FA05F31B
:1005D00020FA04F001FA05F240EA020001F00042BC
:1005E00021F0004110EBD37021FA04F642EB060132
:1005F0005EEA430E08BF20EAD37070BDC4F10C045C
:10060000C4F1200500FA04F320FA05F001FA04F21F
:1006100040EA020001F0004110EBD37041F100010B
:100620005EEA430E08BF20EAD37070BDC4F1200516
:1006300000FA05F24EEA020E20FA04F301FA05F27E
:1006400043EA020321FA04F001F0004121FA04F226
:1006500020EA020000EBD3705EEA430E08BF20EAF6
:10066000D37070BD94F0000F0FD101F00046400030
:1006700041EB010111F4801F08BF013CF7D041EAB2
:10068000060195F0000F18BF704703F000465200B6
:1006900043EB030313F4801F08BF013DF7D043EA87
:1006A0000603704794EA0C0F0CEA135518BF95EA3D
:1006B0000C0F0CD050EA410618BF52EA4306D1D1C4
:1006C00081EA030101F000414FF0000070BD50EAE3
:1006D000410606BF1046194652EA430619D094EA6D
:1006E0000C0F02D150EA013613D195EA0C0F05D157
:1006F00052EA03361CBF104619460AD181EA0301AB
:1007000001F0004141F0FE4141F470014FF0000062
:1007100070BD41F0FE4141F4780170BD70B54FF0FD
:10072000FF0C4CF4E06C1CEA11541DBF1CEA13557D
:1007300094EA0C0F95EA0C0F00F0A7F8A4EB05045F
:1007400081EA030E52EA03354FEA013100F0888056
:100750004FEA03334FF0805545EA131343EA12631F
:100760004FEA022245EA111545EA10654FEA0026D4
:100770000EF000419D4208BF964244F1FD0404F58D
:10078000407402D25B084FEA3202B61A65EB0305E9
:100790005B084FEA32024FF480104FF4002CB6EBA6
:1007A000020E75EB030E22BFB61A754640EA0C0026
:1007B0005B084FEA3202B6EB020E75EB030E22BF66
:1007C000B61A754640EA5C005B084FEA3202B6EBA7
:1007D000020E75EB030E22BFB61A754640EA9C0066
:1007E0005B084FEA3202B6EB020E75EB030E22BF36
:1007F000B61A754640EADC0055EA060E18D04FEAF4
:10080000051545EA16754FEA06164FEAC30343EA93
:1008100052734FEAC2025FEA1C1CC0D111F4801F60
:100820000BD141EA00014FF000004FF0004CB6E759
:1008300011F4801F04BF01430020B4F1FD0C88BFF8
:10084000BCF5E06F3FF6AFAEB5EB030C04BFB6EB03
:10085000020C5FEA500C50F1000041EB045170BDF6
:100860000EF0004E4EEA113114EB5C04C2BFD4EB23
:100870000C0541EA045170BD41F480114FF0000EA7
:10088000013C90E645EA060E8DE60CEA135594EA23
:100890000C0F08BF95EA0C0F3FF43BAF94EA0C0F26
:1008A0000AD150EA01347FF434AF95EA0C0F7FF49B
:1008B00025AF104619462CE795EA0C0F06D152EAEF
:1008C00003353FF4FDAE1046194622E750EA4106D3
:1008D00018BF52EA43067FF4C5AE50EA41047FF4E4
:1008E0000DAF52EA43057FF4EBAE12E74FF0FF3C49
:1008F00006E000BF4FF0010C02E000BF4FF0010C1A
:100900004DF804CD4FEA410C7FEA6C5C4FEA430C92
:1009100018BF7FEA6C5C1BD001B050EA410C0CBFE1
:1009200052EA430C91EA030F02BF90EA020F002043
:10093000704710F1000F91EA030F58BF994208BFAA
:1009400090422CBFD8176FEAE37040F00100704767
:100950004FEA410C7FEA6C5C02D150EA013C07D1BE
:100960004FEA430C7FEA6C5CD6D152EA033CD3D009
:100970005DF8040B704700BF8446104662468C4603
:100980001946634600E000BF01B5FFF7B7FF002836
:1009900048BF10F1000F01BD4DF808EDFFF7F4FF5F
:1009A0000CBF012000205DF808FB00BF4DF808EDEA
:1009B000FFF7EAFF34BF012000205DF808FB00BF0D
:1009C0004DF808EDFFF7E0FF94BF012000205DF82F
:1009D00008FB00BF4DF808EDFFF7CEFF94BF0120E4
:1009E00000205DF808FB00BF4DF808EDFFF7C4FFDD
:1009F00034BF012000205DF808FB00BF4FEA410230
:100A0000B2F1E04324BFB3F5001CDCF1FE5C0DD96C
:100A100001F0004C4FEAC0024CEA5070B2F1004FB6
:100A200040EB830008BF20F00100704711F0804FB9
:100A300021D113F13872BCBF01F00040704741F47E
:100A400080114FEA5252C2F11802C2F1200C10FA82
:100A50000CF320FA02F018BF40F001004FEAC12366
:100A60004FEAD32303FA0CFC40EA0C0023FA02F30A
:100A70004FEA4303CCE77FEA625307D150EA0133E0
:100A80001EBF4FF0FE4040F44000704701F00040B0
:100A900040F0FE4040F40000704700BF80F000408E
:100AA00002E000BF81F0004142001FBF5FEA410346
:100AB00092EA030F7FEA226C7FEA236C6AD04FEA46
:100AC0001262D2EB1363C1BFD2184140484041408B
:100AD000B8BF5B42192B88BF704710F0004F40F43D
:100AE000000020F07F4018BF404211F0004F41F459
:100AF000000121F07F4118BF494292EA030F3FD025
:100B0000A2F1010241FA03FC10EB0C00C3F1200337
:100B100001FA03F100F0004302D5494260EB4000C6
:100B2000B0F5000F13D3B0F1807F06D340084FEA31
:100B3000310102F10102FE2A51D2B1F1004F40EB26
:100B4000C25008BF20F0010040EA0300704749008E
:100B500040EB0000013A28BFB0F5000FEDD2B0FA2B
:100B600080FCACF1080CB2EB0C0200FA0CF0AABF4E
:100B700000EBC25052421843BCBFD04018437047EC
:100B800092F0000F81F4000106BF80F400000132F2
:100B9000013BB5E74FEA41037FEA226C18BF7FEAC9
:100BA000236C21D092EA030F04D092F0000F08BF0B
:100BB0000846704790EA010F1CBF0020704712F0F2
:100BC0007F4F04D1400028BF40F00040704712F131
:100BD00000723CBF00F50000704700F0004343F096
:100BE000FE4040F4000070477FEA226216BF0846CC
:100BF0007FEA23630146420206BF5FEA412390EA8F
:100C0000010F40F4800070474FF0000304E000BF84
:100C100010F0004348BF40425FEA000C08BF704735
:100C200043F0964301464FF000001CE050EA0102F9
:100C300008BF70474FF000030AE000BF50EA01020E
:100C400008BF704711F0004302D5404261EB4101FB
:100C50005FEA010C02BF84460146002043F0B64320
:100C600008BFA3F18053A3F50003BCFA8CF2083A45
:100C7000A3EBC25310DB01FA02FC634400FA02FC4E
:100C8000C2F12002BCF1004F20FA02F243EB020055
:100C900008BF20F00100704702F1200201FA02FCB7
:100CA000C2F1200250EA4C0021FA02F243EB0200AA
:100CB00008BF20EADC7070474FF0FF0C1CEAD052EE
:100CC0001EBF1CEAD15392EA0C0F93EA0C0F6FD0AF
:100CD0001A4480EA010C400218BF5FEA41211ED08D
:100CE0004FF0006343EA501043EA5111A0FB013179
:100CF0000CF00040B1F5000F3EBF490041EAD3714E
:100D00005B0040EA010062F17F02FD2A1DD8B3F1C9
:100D1000004F40EBC25008BF20F00100704790F038
:100D2000000F0CF0004C08BF49024CEA502040EA8A
:100D300051207F3AC2BFD2F1FF0340EAC250704750
:100D400040F400004FF00003013A5DDC12F1190F8E
:100D5000DCBF00F000407047C2F10002410021FA00
:100D600002F1C2F1200200FA02FC5FEA310040F118
:100D7000000053EA4C0308BF20EADC70704792F091
:100D8000000F00F0004C02BF400010F4000F013AC9
:100D9000F9D040EA0C0093F0000F01F0004C02BFC4
:100DA000490011F4000F013BF9D041EA0C018FE733
:100DB0000CEAD15392EA0C0F18BF93EA0C0F0AD039
:100DC00030F0004C18BF31F0004CD8D180EA01005F
:100DD00000F00040704790F0000F17BF90F0004FF8
:100DE000084691F0000F91F0004F14D092EA0C0FDA
:100DF00001D142020FD193EA0C0F03D14B0218BF6D
:100E0000084608D180EA010000F0004040F0FE40B2
:100E100040F40000704740F0FE4040F4400070474E
:100E20004FF0FF0C1CEAD0521EBF1CEAD15392EACD
:100E30000C0F93EA0C0F69D0A2EB030280EA010CBD
:100E400049024FEA402037D04FF0805343EA111156
:100E500043EA10130CF000408B4238BF5B0042F1B4
:100E60007D024FF4000C8B4224BF5B1A40EA0C0059
:100E7000B3EB510F24BFA3EB510340EA5C00B3EB8B
:100E8000910F24BFA3EB910340EA9C00B3EBD10F79
:100E900024BFA3EBD10340EADC001B0118BF5FEACB
:100EA0001C1CE0D1FD2A3FF650AF8B4240EBC250F4
:100EB00008BF20F0010070470CF0004C4CEA5020B5
:100EC0007F32C2BFD2F1FF0340EAC250704740F404
:100ED00000004FF00003013A37E792F0000F00F0F6
:100EE000004C02BF400010F4000F013AF9D040EA74
:100EF0000C0093F0000F01F0004C02BF490011F408
:100F0000000F013BF9D041EA0C0195E70CEAD153FF
:100F100092EA0C0F08D142027FF47DAF93EA0C0FE6
:100F20007FF470AF084676E793EA0C0F04D14B02CA
:100F30003FF44CAF08466EE730F0004C18BF31F07C
:100F4000004CCAD130F000427FF45CAF31F0004376
:100F50007FF43CAF5FE700BF4FF0FF3C06E000BF0F
:100F60004FF0010C02E000BF4FF0010C4DF804CD32
:100F70004FEA40024FEA41037FEA226C18BF7FEA42
:100F8000236C11D001B052EA530C18BF90EA010F44
:100F900058BFB2EB030088BFC81738BF6FEAE170D3
:100FA00018BF40F0010070477FEA226C02D15FEA6F
:100FB000402C05D17FEA236CE4D15FEA412CE1D0DB
:100FC0005DF8040B704700BF844608466146FFE7A2
:100FD0000FB5FFF7C9FF002848BF10F1000F0FBD84
:100FE0004DF808EDFFF7F4FF0CBF012000205DF87D
:100FF00008FB00BF4DF808EDFFF7EAFF34BF012002
:1010000000205DF808FB00BF4DF808EDFFF7E0FF9A
:1010100094BF012000205DF808FB00BF4DF808EDEB
:10102000FFF7D2FF94BF012000205DF808FB00BF4E
:101030004DF808EDFFF7C8FF34BF012000205DF830
:1010400008FB00BF4FEA4002B2F1FE4F0FD34FF052
:101050009E03B3EB12620DD94FEA002343F0004325
:1010600010F0004F23FA02F018BF404270474FF0D3
:101070000000704712F1610F01D1420205D110F05A
:10108000004008BF6FF0004070474FF0000070470D
:1010900042000ED2B2F1FE4F0BD34FF09E03B3EBE2
:1010A000126209D44FEA002343F0004323FA02F00E
:1010B00070474FF00000704712F1610F01D14202FA
:1010C00002D14FF0FF3070474FF00000704700BF73
:1010D0007BB972B90029BEBF00204FF0004106E085
:1010E00008BF00281CBF6FF000414FF0FF3000F038
:1010F000A9B9ADF1080C6DE904CE002909DB002B7C
:101100001ADB00F035F8DDF804E0DDE9022304B075
:101110007047404261EB4101002B1BDB00F028F8D7
:10112000DDF804E0DDE9022304B0404261EB410157
:10113000524263EB43037047524263EB430300F0B8
:1011400017F8DDF804E0DDE9022304B0404261EB6A
:1011500041017047524263EB430300F009F8DDF8A8
:1011600004E0DDE9022304B0524263EB430370471D
:101170002DE9F047089E0D4604468846002B4DD1C8
:101180008A42944668D9B2FA82F252B101FA02F365
:10119000C2F1200120FA01F10CFA02FC41EA030835
:1011A00094404FEA1C41B8FBF1F71FFA8CFE01FB9B
:1011B000178807FB0EF0230C43EA084398420AD92C
:1011C0001CEB030307F1FF3580F01E81984240F2CB
:1011D0001B81023F63441B1AB3FBF1F001FB103388
:1011E00000FB0EFEA4B244EA0344A6450AD91CEB58
:1011F000040400F1FF3380F00981A64540F2068126
:10120000644402380021A4EB0E0440EA07401EB1FA
:101210000023D440C6E90043BDE8F0878B4208D9DB
:10122000002E00F0EE800021C6E900050846BDE86A
:10123000F087B3FA83F100294AD1AB4202D382424C
:1012400000F2FC80841A65EB030301209846002E0F
:10125000E2D0C6E90048DFE702B9FFDEB2FA82F267
:10126000002A40F09180A1EB0C0001214FEA1C47BD
:101270001FFA8CFEB0FBF7F307FB1300250C45EAC1
:1012800000450EFB03F0A84208D91CEB050503F14D
:10129000FF3802D2A84200F2CE8043462D1AB5FB99
:1012A000F7F007FB10550EFB00FEA4B244EA05441C
:1012B000A64508D91CEB040400F1FF3502D2A6456F
:1012C00000F2B6802846A4EB0E0440EA03409EE7F5
:1012D000C1F120078B4022FA07FC4CEA030C25FAE7
:1012E00007FA4FEA1C49BAFBF9F820FA07F309FBA1
:1012F00018AA8D401FFA8CFE1D4300FA01F308FB6B
:101300000EF02C0C44EA0A44A04202FA01F20BD976
:101310001CEB040408F1FF3A80F08880A04240F200
:101320008580A8F102086444241AB4FBF9F009FB93
:10133000104400FB0EFEADB245EA0444A64508D9B0
:101340001CEB040400F1FF356CD2A6456AD90238C3
:10135000644440EA0840A0FB0295A4EB0E04AC42B2
:10136000C846AE4656D353D0002E69D0B3EB080220
:1013700064EB0E0422FA01F304FA07F71F43CC4092
:10138000C6E90074002147E70CFA02FCC2F1200113
:1013900025FA01F34FEA1C4720FA01F195400D436D
:1013A000B3FBF7F107FB11331FFA8CFE280C40EA60
:1013B000034001FB0EF3834204FA02F408D91CEB4C
:1013C000000001F1FF382FD283422DD90239604449
:1013D000C01AB0FBF7F307FB1300ADB245EA0045B6
:1013E00003FB0EF0A84208D91CEB050503F1FF38FA
:1013F00016D2A84214D9023B6544281A43EA014197
:1014000038E73146304607E72F46E4E61846F9E666
:101410004B45A9D2B9EB020865EB0C0E0138A3E7E6
:101420004346EAE7284694E74146D1E7D0467BE7C2
:101430006444023847E7023B65442FE7084606E765
:101440003146E9E6704700BF844641EA000313F0E5
:10145000030349D1403A23D30B6803604B684360D0
:101460008B688360CB68C3600B6903614B69436120
:101470008B698361CB69C3610B6A03624B6A436208
:101480008B6A8362CB6AC3620B6B03634B6B4363F0
:101490008B6B8363CB6BC36340304031403ADBD20C
:1014A00030320BD30B6803604B6843608B688360FA
:1014B000CB68C36010301031103AF3D20C3205D330
:1014C00051F8043B40F8043B043AF9D2043208D006
:1014D000D2071CBF11F8013B00F8013B01D30B8878
:1014E00003806046704700BF082A13D38B07B1D032
:1014F00010F00303AED0C3F10403D21ADB071CBF04
:1015000011F8013B00F8013BA4D331F8023B20F86D
:10151000023B9FE7043AD9D3013A11F8013B00F8A6
:10152000013BF9D20B7803704B7843708B78837052
:10153000604670474FEA410C7FEA6C5C02D150EA8A
:10154000013C0AD14FEA430C7FEA6C5C02D152EABB
:10155000033C02D14FF0000070474FF0010070478C
:101560004FEA410212F5001215D211D56FF47873CB
:10157000B3EB625212D94FEAC12343F0004343EA6E
:10158000505311F0004F23FA02F018BF4042704749
:101590004FF00000704750EA013005D111F00040D3
:1015A00008BF6FF0004070474FF00000704700BF69
:1015B00053B94AB9002908BF00281CBF4FF0FF31BA
:1015C0004FF0FF30FFF73EBFADF1080C6DE904CEE0
:1015D000FFF7CEFDDDF804E0DDE9022304B070473B
:1015E00010B5002430E0364805F0AEFD33E0354854
:1015F00005F0AAFD35E0344800F08CF9FEF7EAFE6C
:101600002BA3D3E90023FEF75FFF00222F4BFEF749
:101610005BFF29A3D3E90023FEF7A0FDFFF7EEF956
:101620004FF08041FFF704FD20B1294B002243F821
:10163000242008E0264B012243F8242003E0244B19
:10164000012243F824200134012C2DDC1E4800F037
:101650004DFA0028C7D10A211B4800F099F800284C
:10166000C5D1194800F0FCF910F4007FEBD0012C33
:10167000C1D0154800F04EF9FEF7ACFE0CA3D3E93B
:101680000023FEF721FF0022104BFEF71DFFFFF79E
:10169000B5F94FF08041FFF7CBFC0028CFD00C4BC1
:1016A000002243F82420CEE7074800F043FB10BD9A
:1016B0006666666666660A40666666666666E63FF3
:1016C00098F70008A8F70008BC0A00200000303F87
:1016D0005C0A002010B504460E4B18784FF47A735C
:1016E000B3FBF0F30C4A1068B0FBF3F000F094FB8E
:1016F00068B90F2C01D901200AE0002221464FF0E1
:10170000FF3000F043FB054B1C60002000E001208F
:1017100010BD00BF00000020540000200400002085
:1017200008B5074A136843F010031360032000F064
:101730001BFB0F20FFF7CEFF02F002FA002008BDCE
:1017400000200240034A1168034B1B780B441360CE
:10175000704700BF700A002000000020014B18688D
:10176000704700BF700A002038B50446FFF7F6FF47
:101770000546B4F1FF3F02D0044B1B781C44FFF731
:10178000EDFF401BA042FAD338BD00BF000000208F
:10179000F0B583B005460C4600230193FFF7DEFF4A
:1017A0002B689A6812F4807F23D107465A6812F496
:1017B000807F03D1DB6A13F4700F29D0504B1E6871
:1017C000022001F015F8B6FBF0F62B6819694D4AB6
:1017D000114236D1D96802F15C42114231D1196906
:1017E000494A114240D1DA68484B1A423ED029207A
:1017F00041E0AB6A43F02003AB62002385F824305C
:10180000012003B0F0BD2B681B6813F0020F0FD04E
:101810002B681B6813F0020F4FD1B4F1FF3FF7D0D4
:10182000002CF0D0FFF79AFFC31BA342F0D9EAE7E0
:10183000AB6A43F00403AB62002385F82430032035
:10184000DFE71969304A114204D1D96802F16E42CA
:1018500011420DD019692E4A0A405AB9DA682C4B48
:1018600013405BB1FC2006E0292004E0142002E0D4
:10187000542000E0FC2000FB06F607E05420FAE7C5
:10188000019BB34210D3019B01330193019BB342EF
:1018900013D2B4F1FF3FF6D0002CF1D0FFF75EFF7A
:1018A000C01BA042EFD9EBE7AB6A43F00403AB6285
:1018B000002385F824300320A3E72B686FF0120281
:1018C0001A60AB6A43F40073AB622B689B6803F445
:1018D0006023B3F5602F01D0002092E7287B60B928
:1018E000AB6A23F48073AB62AB6A13F4805F88D178
:1018F000AB6A43F00103AB6283E7002081E700BFDE
:101900005400002024499224922449129224490030
:10191000499224000368D86C7047000030B482B04C
:101920000022019290F82420012A00F091800346C1
:10193000012280F824204A68062A2DD80468606BAA
:1019400002EB8202053A4FF01F0C0CFA02FC20EA6F
:101950000C000D6805FA02F2024362630A68092A64
:101960003AD91C68E06802EB42021E3A4FF0070CBD
:101970000CFA02FC20EA0C008D6805FA02F2024320
:10198000E2600A68103A012A36D90020002283F862
:10199000242002B030BC70470C2A0ED80568286B92
:1019A00002EB8202233A1F24944020EA04000C68D0
:1019B00004FA02F202432A63D0E70568E86A02EB00
:1019C0008202413A1F24944020EA04000C6804FA81
:1019D00002F20243EA62C1E71C68206902EB42029C
:1019E0004FF0070C0CFA02FC20EA0C008D6805FA97
:1019F00002F202432261C4E71A681648824205D007
:101A00009A6A42F020029A620120BFE7906810F4BF
:101A1000000F1BD1906840F4000090600A68102A03
:101A200001D00020B2E70C4A12680C49A1FB021257
:101A3000920C02EB82025200019202E0019A013AFA
:101A40000192019A002AF9D100209FE700209DE72A
:101A500002209EE7002401405400002083DE1B4347
:101A6000806A704730B583B00023019303689A6899
:101A700012F0010F33D104469A6842F001029A60D5
:101A8000184B1B68184AA2FB03239B0C019302E02E
:101A9000019B013B0193019B002BF9D1FFF75EFEF7
:101AA000054623689B6813F0010F16D1FFF756FE19
:101AB000431B022BF5D923689B6813F0010FF0D16B
:101AC000A36A43F01003A362E36A43F00103E362F5
:101AD000002384F82430012002E0002000E00020F0
:101AE00003B030BD5400002083DE1B4390F8243047
:101AF000012B68D010B50446012380F82430FFF78D
:101B0000B1FF00285BD1A36A23F4407323F00103E3
:101B100043F48073A36223682C4A934227D0A26ABD
:101B200022F48012A2625A6812F4806F05D0A26A71
:101B300022F4405242F48052A262A26A12F4805F00
:101B40002BD0E26A22F00602E262002284F824200E
:101B50006FF002021A6023689A6802F46022B2F5FC
:101B6000602F1DD09A6842F480129A602AE0A2F594
:101B70008062526812F4702FD1D0A26A42F48012AF
:101B8000A262134A526812F4806FD6D0A26A22F47D
:101B9000405242F48052A262CFE70022E262D4E7D0
:101BA0000A4A934204D09A6842F4A0029A6009E07B
:101BB000A2F58062526812F4702FD3D1F3E70023AC
:101BC00084F8243010BD0220704700BF0028014077
:101BD0000024014038B503689A6812F0010F01D162
:101BE000002038BD04469A6822F001029A60FFF78F
:101BF000B5FD054623689B6813F0010F13D0FFF76E
:101C0000ADFD431B022BF5D923689B6813F0010F30
:101C1000F0D0A36A43F01003A362E36A43F0010328
:101C2000E3620120DDE70020DBE7000000287BD035
:101C300070B50446836A002B4DD02046FFF7CAFFDB
:101C4000A36A13F0100369D1002867D1A26A22F4B5
:101C5000885222F0020242F00202A2626268E16946
:101C60000A43217B42EA4102A568B5F5807F02D094
:101C7000012D36D01D46267D012E35D0266871688F
:101C800021F46941294371602568AE6827493140D4
:101C90001143A960A168B1F5807F01D0012902D16B
:101CA0002369013B1B052568E96A21F470010B4398
:101CB000EB62236899681E4B0B409A4225D0A36AB9
:101CC00023F0120343F01003A362E36A43F001031D
:101CD000E362012027E0C36280F8243001F0DCFBDE
:101CE000ABE74FF48075C6E731B9A169013945EA20
:101CF000413141F40065C1E7A16A41F02001A162D0
:101D0000E16A41F00101E162B8E70023E362A36AFE
:101D100023F0030343F00103A36204E0A36A43F04A
:101D20001003A362012070BD01207047FDF7E1FFA1
:101D3000FE0E1FFF90F82430012B13D010B504467F
:101D4000012380F82430FFF745FF38B9A36A23F454
:101D5000885323F0010343F00103A362002384F8B6
:101D6000243010BD02207047074AD36823F4E06393
:101D70001B041B0C000200F4E060034343F0BF634C
:101D800043F40033D360704700ED00E000B5194B19
:101D9000DB68C3F30223C3F1070CBCF1040F28BFB7
:101DA0004FF0040C03F1040EBEF1060F18D9033BEB
:101DB0004FF0FF3E0EFA0CFC21EA0C0199400EFA9E
:101DC00003F322EA0303194300280BDB0901C9B21C
:101DD00000F1604000F5614080F800135DF804FBFD
:101DE0000023E5E700F00F000901C9B2024B1954C6
:101DF000F4E700BF00ED00E014ED00E0002807DB91
:101E000000F01F02400901239340024A42F82030AB
:101E1000704700BF00E100E00138B0F1807F0BD2D5
:101E20004FF0E0235861054AF02182F8231000208A
:101E3000986107221A6170470120704700ED00E0A9
:101E400070B582B00024A446A6E0804DAA4210D00E
:101E500007D97F4DAA420CD005F58035AA4208D09B
:101E600013E0A5F58015AA4203D005F57025AA4216
:101E700007D18A68002A58D0012A51D0436108242A
:101E800003E0A5F58015AA42F3D0BEF1FF0F4ED8AE
:101E90000646BEF1FF0F4CD84FEA8C0233680F257F
:101EA000954023EA050304FA02F2134333604B68BA
:101EB00013F0805F6ED0674B9A6942F001029A611D
:101EC0009B6903F001030193019B4FEA9C02951C5F
:101ED000614B53F825600CF003039D000F23AB40CA
:101EE00026EA03065D4B984229D003F580639842A9
:101EF00000F08E8003F58063984200F08B8003F53C
:101F00008063984219D004231AE0CC68BDE7CC68FE
:101F10000434BAE7CC680834B7E7CC680C34B4E7CB
:101F200003610824B1E70024AFE70424ADE7061DF0
:101F3000AFE7ACF108029200B0E7032300E0002312
:101F4000AB4033430232444D45F822304B6813F422
:101F5000801F61D0424A936843EA0E0393604B6846
:101F600013F4001F5ED03E4AD36843EA0E03D360E9
:101F70004B6813F4003F5BD0394A536843EA0E03C1
:101F800053604B6813F4803F58D0354A136843EAD6
:101F90000E0313600CF1010C0A6832FA0CF353D0F3
:101FA000012303FA0CF302EA030E33EA0202F1D131
:101FB0004A68122A3FF649AF122A3FF666AF01A5DA
:101FC00055F822F0731E00080B1F0008151F0008AB
:101FD000271F00088B1E00088B1E00088B1E0008A0
:101FE0008B1E00088B1E00088B1E00088B1E00082D
:101FF0008B1E00088B1E00088B1E00088B1E00081D
:102000008B1E00088B1E00080F1F00081B1F0008F6
:10201000012395E7022393E7114A936823EA0E030D
:1020200093609CE70E4AD36823EA0E03D3609FE7D0
:102030000B4A536823EA0E035360A2E7084A136869
:1020400023EA0E031360A5E702B070BD0000221062
:102050000000311000100240000001400008014063
:10206000000401408368194201D00120704700201C
:1020700070470AB101617047090401617047C36884
:1020800001EA030221EA030141EA024101617047CA
:1020900082B0084B1B68084AA2FB03235B0A00FBC3
:1020A00003F3019300BF019B5A1E0192002BF9D14B
:1020B00002B0704754000020D34D6210002800F099
:1020C000F18170B582B00446036813F0010F2CD083
:1020D000994B5B6803F00C03042B1DD0964B5B6897
:1020E00003F00C03082B12D06368B3F5803F41D096
:1020F000002B55D103F1804303F504331A6822F411
:1021000080321A601A6822F480221A6037E08A4B03
:102110005B6813F4803FE7D0874B1B6813F4003FE4
:1021200003D06368002B00F0BF81236813F0020F17
:1021300075D0814B5B6813F00C0F5FD07E4B5B68F2
:1021400003F00C03082B54D02369002B00F08A8085
:102150007A4B01221A60FFF701FB0546764B1B689C
:1021600013F0020F75D1FFF7F9FA401B0228F5D9D9
:1021700003209EE1704A136843F480331360636860
:1021800043B3FFF7EBFA05466B4B1B6813F4003FB4
:10219000CBD1FFF7E3FA401B6428F5D9032088E18F
:1021A000B3F5A02F09D0644B1A6822F480321A606C
:1021B0001A6822F480221A60E1E703F18043A3F554
:1021C0003C331A6842F480221A601A6842F4803262
:1021D0001A60D4E7FFF7C2FA0546574B1B6813F4A1
:1021E000003FA2D0FFF7BAFA401B6428F5D90320BC
:1021F0005FE1514B5B6813F4803FA5D14E4B1B68E8
:1022000013F0020F03D02369012B40F04F814A4A9B
:10221000136823F0F803616943EAC103136023687C
:1022200013F0080F33D0A369002B5CD0434B01227D
:10223000C3F88024FFF792FA05463F4B5B6A13F020
:10224000020F21D1FFF78AFA401B0228F5D903209B
:102250002FE1394A136823F0F803616943EAC103A7
:102260001360DCE7354B00221A60FFF777FA05466A
:10227000314B1B6813F0020FD1D0FFF76FFA401BF0
:102280000228F5D9032014E10120FFF701FF23689C
:1022900013F0040F00F09680274BDB6913F0805F8A
:1022A00034D1254BDA6942F08052DA61DB6903F000
:1022B00080530193019B0125214B1B6813F4807F00
:1022C00026D0E368012B3DD0002B53D103F180438E
:1022D00003F504331A6A22F001021A621A6A22F024
:1022E00004021A6233E0154B0022C3F88024FFF782
:1022F00035FA0546104B5B6A13F0020FC7D0FFF7A3
:102300002DFA401B0228F5D90320D2E00025D3E79F
:102310000B4A136843F480731360FFF71FFA0646F5
:10232000074B1B6813F4807FCBD1FFF717FA801B94
:102330006428F5D90320BCE00010024000004242AE
:10234000007000405F4A136A43F001031362E368C0
:1023500033B3FFF703FA06465A4B1B6A13F0020F1A
:102360002FD1FFF7FBF9801B41F288339842F3D954
:1023700003209EE0052B09D0524B1A6A22F001027D
:102380001A621A6A22F004021A62E0E74D4B1A6AD6
:1023900042F004021A621A6A42F001021A62D6E797
:1023A000FFF7DCF90646474B1B6A13F0020F08D013
:1023B000FFF7D4F9801B41F288339842F3D9032008
:1023C00077E0E5B9E369002B72D03E4A526802F02B
:1023D0000C02082A56D0022B17D03B4B00221A665B
:1023E000FFF7BCF90446374B1B6813F0007F47D05A
:1023F000FFF7B4F9001B0228F5D9032059E0314A50
:10240000D36923F08053D361DCE72F4B00221A6697
:10241000FFF7A4F905462B4B1B6813F0007F06D08D
:10242000FFF79CF9401B0228F5D9032041E0236AFD
:10243000B3F5803F1AD023494B6823F47413226A02
:10244000606A024313434B601F4B01221A66FFF779
:1024500085F904461B4B1B6813F0007F0ED1FFF774
:102460007DF9001B0228F5D9032022E0154A5368A4
:1024700023F40033A1680B435360DCE7002018E02D
:10248000002016E0012B16D00E4B5B6803F4803160
:10249000226A914211D103F47013626A93420ED101
:1024A000002006E001207047012002E0012000E04A
:1024B000002002B070BD0120FBE70120F9E70120F8
:1024C000F7E700BF00100240000042420F4B5B687C
:1024D00003F00C02082A01D00D487047C3F3834271
:1024E0000C49885C13F4803F0BD0084B5B68C3F346
:1024F0004043094AD35C064A02FB00F0B0FBF3F00C
:102500007047064B03FB00F0704700BF001002400D
:1025100000127A00B8F70008C8F7000800093D006B
:10252000002800F0A08070B50D460446524B1B6891
:1025300003F007038B420BD24F4A136823F00703C3
:102540000B431360136803F007038B4240F08D8048
:10255000236813F0020F17D013F0040F04D0474A7A
:10256000536843F4E0635360236813F0080F04D00A
:10257000424A536843F460535360404A536823F01F
:10258000F003A1680B435360236813F0010F31D0AF
:102590006368012B20D0022B25D0384A126812F034
:1025A000020F64D035494A6822F0030213434B609E
:1025B000FFF7D4F80646314B5B6803F00C03626802
:1025C000B3EB820F16D0FFF7C9F8801B41F28833B6
:1025D0009842F0D9032045E0284A126812F4003FDF
:1025E000E0D101203EE0254A126812F0007FD9D1E7
:1025F000012037E0204B1B6803F00703AB420AD9E8
:102600001D4A136823F007032B431360136803F07C
:102610000703AB422DD1236813F0040F06D0174AED
:10262000536823F4E063E1680B435360236813F0BD
:10263000080F07D0114A536823F46053216943EA15
:10264000C1035360FFF742FF0C4B5B68C3F30313F6
:102650000B4AD35CD8400B4B18600B4B1868FFF744
:1026600039F8002070BD012070470120FAE70120F1
:10267000F8E70120F6E700BF00200240001002400A
:102680003CF800085400002004000020014B1868AA
:10269000704700BF5400002008B5FFF7F7FF044B58
:1026A0005B68C3F30223034AD35CD84008BD00BF74
:1026B000001002404CF8000808B5FFF7E7FF044B94
:1026C0005B68C3F3C223034AD35CD84008BD00BF94
:1026D000001002404CF8000870B582B00446036850
:1026E00013F0010F36D03F4BDB6913F0805F49D107
:1026F0003C4BDA6942F08052DA61DB6903F08053C7
:102700000193019B0125384B1B6813F4807F3BD05C
:10271000344B1B6A13F4407313D0626802F44072A6
:102720009A420ED02F4A136A23F440702F49012693
:10273000C1F840640026C1F84064106213F0010F34
:1027400036D1284A136A23F4407361680B4313623D
:10275000002D3ED1236813F0020F06D0214A5368A2
:1027600023F44043A1680B435360236813F0100F18
:1027700034D01C4A536823F48003E1680B43536050
:1027800000202CE00025BEE7174A136843F480734D
:102790001360FEF7E3FF0646134B1B6813F4807FBC
:1027A000B6D1FEF7DBFF801B6428F5D9032016E0C5
:1027B000FEF7D4FF06460B4B1B6A13F0020FC0D185
:1027C000FEF7CCFF801B41F288339842F3D90320F7
:1027D00005E0D36923F08053D361BBE7002002B04A
:1027E00070BD00BF00100240007000400000424277
:1027F00008B502284ED0102803D0012828D0002088
:1028000008BD2B4B5A68186810F08070F8D0C2F3DE
:1028100083432849C85C12F4803F15D0244B5B6881
:10282000C3F34043244AD25C244BB3FBF2F303FBD3
:1028300000F01F4B5B6813F4800FE1D14000204B88
:10284000A3FB00304008DBE71E4B03FB00F0F0E782
:10285000174B1B6A40F202321A40B2F5817F24D036
:1028600003F44073B3F5007F04D0B3F5407F09D083
:102870000020C5E70E4A526A12F0020FF5D049F661
:102880004040BDE70A4B186810F40030B8D04FF252
:102890002440B5E7FFF710FF054B5B68C3F38133B6
:1028A00001335B00B0FBF3F0AAE74FF40040A7E769
:1028B00000100240CCF70008DCF7000800127A0094
:1028C000ABAAAAAA00093D0070B4036A026A22F00A
:1028D000010202624668826922F073020C6844EACF
:1028E000020523F002028B6813430D4CA04209D06D
:1028F0000B4CA0420DD0466085614A68426303627A
:1029000070BC704723F00803CA68134323F0040324
:10291000EEE726F440764A6932438E691643EAE7C9
:10292000002C014030B4036A026A22F48072026211
:102930004568C26922F073020C68224323F40073D5
:102940008C6843EA04230F4CA04209D00D4CA042EE
:102950000ED04560C2614A68C263036230BC7047F2
:1029600023F40063CC6843EA042323F48063EDE797
:1029700025F440554C6945EA04158C6945EA04156F
:10298000E7E700BF002C014030B4036A026A22F47A
:10299000805202624468C26922F4E6420D6842EA4B
:1029A000052223F400538D6843EA0533074DA842FE
:1029B00006D04460C2614A680264036230BC70475A
:1029C00024F480444D6944EA8514F2E7002C014068
:1029D00010B4036A046A24F001040462846924F0D8
:1029E000F00C4CEA021223F00A030B4382610362EB
:1029F00010BC704710B4036A046A24F01004046227
:102A0000846924F4704C4CEA023223F0A00343EAB8
:102A100001138261036210BC7047836823F0700366
:102A20000B4343F0070383607047000090F83D308C
:102A3000DBB2012B27D1022380F83D300268D36836
:102A400043F00103D3600368114A934210D0B3F1FD
:102A5000804F0DD0A2F59432934209D002F58062E6
:102A6000934205D01A6842F001021A6000207047B4
:102A70009A6802F00702062A07D01A6842F001029B
:102A80001A6000207047012070470020704700BF87
:102A9000002C01407047704770477047704710B571
:102AA000044603681A6912F0020F11D0DA6812F0B6
:102AB000020F0DD06FF002021A6101230377036841
:102AC0009B6913F0030F70D0FFF7E6FF0023237715
:102AD00023681A6912F0040F12D0DA6812F0040F9A
:102AE0000ED06FF004021A610223237723689B69DA
:102AF00013F4407F5FD02046FFF7CEFF00232377FB
:102B000023681A6912F0080F12D0DA6812F0080F61
:102B10000ED06FF008021A61042323772368DB6963
:102B200013F0030F4ED02046FFF7B6FF00232377A4
:102B300023681A6912F0100F12D0DA6812F0100F21
:102B40000ED06FF010021A61082323772368DB6927
:102B500013F4407F3DD02046FFF79EFF00232377EC
:102B600023681A6912F0010F03D0DA6812F0010F1E
:102B700036D123681A6912F0800F03D0DA6812F098
:102B8000800F34D123681A6912F0400F03D0DA683D
:102B900012F0400F32D123681A6912F0200F03D0CF
:102BA000DA6812F0200F30D110BDFFF774FF204615
:102BB000FFF773FF8AE72046FFF76DFF2046FFF718
:102BC0006CFF9BE72046FFF766FF2046FFF765FF97
:102BD000ACE72046FFF75FFF2046FFF75EFFBDE74B
:102BE0006FF001021A61204601F040F8C1E76FF072
:102BF00080021A61204600F080FAC3E76FF04002BD
:102C00001A612046FFF74AFFC5E76FF020021A61FC
:102C1000204600F071FAC7E703681B4A90420AD0C9
:102C2000B0F1804F07D0A2F59432904203D002F564
:102C30008062904203D123F070034A681343124A22
:102C400090420AD0B0F1804F07D0A2F59432904262
:102C500003D002F58062904203D123F44073CA6826
:102C6000134323F080034A69134303608B68C362F4
:102C70000B688362044B984202D001234361704782
:102C80000B690363F9E700BF002C014040B310B5A6
:102C9000044690F83D30F3B1022384F83D302146DC
:102CA00051F8040BFFF7B8FF012384F8463084F88D
:102CB0003E3084F83F3084F8403084F8413084F866
:102CC000423084F8433084F8443084F8453084F846
:102CD0003D30002010BD80F83C3001F0B5F8DBE756
:102CE0000120704740B310B5044690F83D30F3B171
:102CF000022384F83D30214651F8040BFFF78CFF86
:102D0000012384F8463084F83E3084F83F3084F85C
:102D1000403084F8413084F8423084F8433084F8FD
:102D2000443084F8453084F83D30002010BD80F8F0
:102D30003C30FFF7AFFEDBE70120704730B4036A99
:102D4000026A22F0100202624468826922F4E642BA
:102D50000D6842EA052223F020038D6843EA05133B
:102D60000E4DA84209D00D4DA8420ED0446082619C
:102D70004A688263036230BC704723F08003CD68E9
:102D800043EA051323F04003EDE724F440644D6962
:102D900044EA85048D6944EA8504E7E7002C014094
:102DA00038B590F83C30012B66D004460D4601231F
:102DB00080F83C300C2A5AD8DFE802F007595959FC
:102DC0001B5959593059595944000068FFF77CFD87
:102DD0002268936943F0080393612268936923F0A2
:102DE000040393612268936929690B43936100206E
:102DF0003EE00068FFF7A2FF2268936943F4006396
:102E000093612268936923F48063936122689369D4
:102E1000296943EA01239361002029E00068FFF754
:102E200081FD2268D36943F00803D3612268D36926
:102E300023F00403D3612268D36929690B43D3616A
:102E4000002015E00068FFF79FFD2268D36943F476
:102E50000063D3612268D36923F48063D36122685D
:102E6000D369296943EA0123D361002000E00120EE
:102E7000002384F83C3038BD0220FCE710B484689D
:102E800024F47F4C42EA03220A4342EA0C028260A5
:102E900010BC704790F83C30012B78D010B5044638
:102EA000012380F83C30022380F83D3002689368AB
:102EB00023F47F4323F0770393600B68602B4CD09F
:102EC00029D8402B54D00CD9502B22D1CA6849683C
:102ED0000068FFF77DFD50212068FFF79EFD002070
:102EE00005E0202B0DD009D9302B0AD00120012379
:102EF00084F83D30002384F83C3010BD0BB1102B1A
:102F000005D119462068FFF788FD0020EFE7012072
:102F1000EDE70120EBE7B3F5805F34D0B3F5005F58
:102F20000CD1CB684A6889680068FFF7A7FF226860
:102F3000936843F4804393600020D8E7702B24D13A
:102F4000CB684A6889680068FFF798FF2268936831
:102F500043F0770393600020C9E7CA6849680068B6
:102F6000FFF748FD60212068FFF757FD0020BEE70E
:102F7000CA6849680068FFF72BFD40212068FFF709
:102F80004CFD0020B3E70020B1E70120AFE70220AD
:102F9000704701F01F01012303FA01FC036A23EAD1
:102FA0000C030362036A02FA01F10B4303627047E8
:102FB00010B50446084651BB94F83E30DBB2013BE5
:102FC00018BF0123002B5BD1002839D1022384F8DC
:102FD0003E30012201462068FFF7DBFF23682A4AC2
:102FE00093423DD02368284A93423ED0B3F1804FAC
:102FF0003BD0A2F59432934237D002F580629342DF
:1030000033D01A6842F001021A60002039E0042926
:1030100008D008290DD094F84130DBB2013B18BF2D
:103020000123CFE794F83F30DBB2013B18BF012307
:10303000C8E794F84030DBB2013B18BF0123C1E779
:10304000042805D0082807D0022384F84130C0E7BF
:10305000022384F83F30BCE7022384F84030B8E70D
:103060005A6C42F400425A64BCE79A6802F00702C4
:10307000062A07D01A6842F001021A60002000E018
:10308000012010BD0020FCE7002C014090F83C30EE
:10309000012B2CD010B4012380F83C30022380F89F
:1030A0003D3003685A689C6822F0700C0A6842EA56
:1030B0000C025A6003680F4A93420AD0B3F1804F62
:1030C00007D0A2F59432934203D002F58062934276
:1030D00004D124F080044A6814439C60012380F8E2
:1030E0003D30002380F83C30184610BC7047022069
:1030F000704700BF002C01407047704710B5044670
:103100000268136923F44053C1680B431361836859
:103110000269134342691A430168CB6823F4B05330
:1031200023F00C031343CB600268536923F440730C
:1031300081690B4353610268134B9A4220D0FFF719
:10314000ABFA024602EB820202EB820263689B004A
:10315000B2FBF3F20D48A0FB02314909642303FBE3
:1031600011231B013233A0FB03235B0903F0F002A0
:1031700002EB011203F00F03216813448B6010BDB2
:10318000FFF79AFA0246DDE7003801401F85EB5150
:103190002DE9F84305460F4616469946DDF820808E
:1031A0002C68246837EA04030CBF4FF0010C4FF081
:1031B000000CB4452DD1B8F1FF3FF1D0B8F1000FAC
:1031C00005D0FEF7CBFAA0EB09004045E8D92A6804
:1031D00002F10C0353E8003F23F4D0730C3242E8B1
:1031E00000310029F3D12A6802F1140353E8003FAB
:1031F00023F00103143242E800310029F3D12023E7
:1032000085F8413085F84230002385F840300320AE
:1032100000E00020BDE8F88360B310B5044690F8E4
:10322000413013B3242384F841302268D36823F457
:103230000053D3602046FFF761FF2268136923F42F
:10324000904313612268536923F02A035361226873
:10325000D36843F40053D36000206064202384F8D3
:10326000413084F84230606310BD80F8403000F097
:10327000E1FED7E7012070472DE9F04182B01E46FC
:1032800090F84130DBB2202B4BD104460D469046DE
:1032900000294AD00AB9012044E0002343642123D5
:1032A00080F84130FEF75AFA0746A4F82480A4F8C3
:1032B0002680A368B3F5805F02D04FF000080FE0CE
:1032C0002369FBB14FF000080AE038F8023B22689E
:1032D000C3F308035360E28C92B2013A92B2E284E3
:1032E000E38C9BB28BB100963B46002280212046A6
:1032F000FFF74EFFD8B9002DE7D015F8012B236852
:103300005A60E8E7A8460025EAE700963B46002217
:1033100040212046FFF73CFF58B9202384F8413074
:1033200000E0022002B0BDE8F0810120FAE70320AE
:10333000F8E70320F6E70023036043608360C3607F
:1033400043618361C3610362704701608261C3614D
:10335000009B036270470000F8B5044641600068B6
:10336000FDF7A0FB0546A0606169FDF79DFB60616C
:103370001549FDF753FE08B1134B636113496069AA
:10338000FDF742FE08B1114B6361A1692846FDF7C4
:1033900093FC06466169E069FDF78EFC0146304604
:1033A000FDF782FB0646276AE1682846FDF77AFBAF
:1033B00001463846FDF780FC01463046FDF774FBB8
:1033C0006060E560F8BD00BF00409C4500409CC5C2
:1033D00000B585B000230193029303932C482D4A36
:1033E00002604FF480728260037301220275826171
:1033F0004FF46022C261436005230361FEF716FCAF
:10340000002832D100230193012302930723039361
:1034100001A91F48FEF782FA50BB01230193022342
:10342000029301A91A48FEF779FA20BB04230193FD
:103430000323029301A91648FEF770FAF0B9052399
:103440000193042302930DEB03011148FEF766FA82
:10345000B8B9082301930523029301A90C48FEF78C
:103460005DFA88B905B05DF804FB00F0D7F8C9E74C
:1034700000F0D4F8D1E700F0D1F8D7E700F0CEF8AB
:10348000DDE700F0CBF8E4E700F0C8F8EAE700BFBA
:10349000BC0A00200024014010B588B0002304932A
:1034A0000593069307930268184B9A4201D008B01F
:1034B00010BD03F56C439A6942F400729A619A69EF
:1034C00002F400720192019A9A6942F004029A6130
:1034D0009A6902F004020292029A9A6942F0080282
:1034E0009A619B6903F008030393039B33230493BE
:1034F0000324059404A90648FEF7A2FC01230493C3
:10350000059404A90348FEF79BFCD0E70024014082
:1035100000080140000C01402DE9F04389B000246F
:103520000494059406940794304B9A6942F0100273
:103530009A619A6902F010020092009A9A6942F028
:1035400020029A619A6902F020020192019A9A6916
:1035500042F004029A619A6902F004020292029A0D
:103560009A6942F008029A619B6903F00803039389
:10357000039BDFF87C9022464FF460414846FEF7FB
:1035800078FD1C4F22464FF440613846FEF771FD2E
:10359000194E01224FF44C713046FEF76AFD4FF48C
:1035A000604304930125059506944FF00208CDF879
:1035B0001C8004A94846FEF743FC4FF44063049383
:1035C00005950694CDF81C8004A93846FEF738FC12
:1035D0004FF44C730493112305930695079504A9A2
:1035E0003046FEF72DFC09B0BDE8F0830010024024
:1035F0000010014000080140000C014000B583B0FC
:1036000001904FF6FF73012201A90348FFF734FE32
:10361000019803B05DF804FBB80B002072B6FEE71A
:1036200000B595B0282200210DEB020003F0D8FC74
:10363000002305930693079308930993019302933C
:103640000393049301220A924FF480330B930E925A
:103650000222119212934FF4E01313930AA8FEF77B
:103660002DFDC8B90F23059302210691002307936E
:103670004FF480620892099305A8FEF751FF68B9DC
:10368000022301934FF40043039301A8FFF724F8AA
:1036900030B915B05DF804FBFFF7C0FFFFF7BEFFC0
:1036A000FFF7BCFFF0B583B0FEF73AF8FFF7B8FFBD
:1036B000FFF732FFFFF78CFE00F028FC00F08CFBD8
:1036C00000F084FC00F09CFCAF48FFF7AFF9AF4D71
:1036D00008212846FFF76CFC0C212846FFF768FC00
:1036E00003F012FA02F000FA0028FBD103F0A9FB64
:1036F000012003F0F3FA03F01CFB08E0A44AA549FB
:10370000A54802F03DFA0520FEF72EF80134632C9F
:10371000F4DDA24C2046FFF70EFEA14E3046FFF727
:103720000AFEA04D002129609F4B01221A704FF024
:103730007C5300939D4B9E4A3046FFF706FE4FF0A8
:103740003F4300939B4B9C4A29682046FFF7FDFDB1
:103750000AE040F6B8321146284600F0B1F9974B1E
:103760001B78002B40F0BD80954C002525606560DE
:10377000A560E56025612575924E3268924B53F83D
:103780002200FCF749FE02460B469049204603F012
:10379000E3FC0C2322462946284603F037FB25602C
:1037A0006560A560E56025612575794B1868FCF7B3
:1037B00033FE02460B468649204603F0CDFC0C231F
:1037C00022460121284603F021FB25606560A560A3
:1037D000E560256125757F4B1868FDF733FC0246CF
:1037E0007D49204603F0B8FC0C23224602212846DE
:1037F00003F00CFB25606560A560E560256125751B
:10380000764B1868FDF71EFC02467549204603F00A
:10381000A3FC0C2322460321284603F0F7FA256077
:103820006560A560E560256125756E4A536812687C
:103830006D49204603F090FC0C23224605212846C2
:1038400003F0E4FA25606560A560E56025612575F3
:1038500032686649204603F07FFC0C23224606218D
:10386000284603F0D3FA504B1B78012B3FF471AF7D
:103870005F4B1B78012B7FF472AF4FF41670FDF78E
:1038800073FF00221146042000F01AF902F02CF90F
:103890000028FBD13E4C00232360404A536140493D
:1038A0004B61484B1868484B53F820303D48036043
:1038B0000B6013604F4803F047FC24684E492046D4
:1038C000FDF7B6FB30B94D492046FDF793FB0028C4
:1038D0003FF445AF464B00221A70334B01221A7059
:1038E0003DE7364B00221A70294B1868FCF794FD0F
:1038F00004460D462B4B1868FCF78EFD06460F4616
:1039000000224FF08043FCF727FC02460B4620467E
:103910002946FDF74BF878B900224FF08043304636
:103920003946FCF71BFC02460B4620462946FDF7AC
:103930005BF800283FF418AF284B1C680021204694
:10394000FDF776FB88B12046FDF77CFB00F088F898
:10395000204B1C6800212046FDF76AFB60B1204621
:10396000FDF770FB00F04CF8FEE604F10040FDF7B7
:1039700069FB00F08DF8EBE704F10040FDF762FB16
:1039800000F056F8F0E600BF680B0020200B002086
:10399000600C00205C0C0020580C0020740A0020F1
:1039A000980A0020080B0020B50B00206F12833A04
:1039B000000096436F1283BA00007AC3180B0020F0
:1039C000EC0A0020B00B002008000020E0F70008FF
:1039D000F0F70008100B0020FCF70008140B002083
:1039E00008F800085C0A002014F8000820F8000815
:1039F000B40B002030F800080000A0420000A0C274
:103A000038B50446084D00224FF480612846FEF781
:103A100030FB01224FF400612846FEF72AFB034BDE
:103A20001B681C6438BD00BF00080140200B00204B
:103A300038B50446084D01224FF480612846FEF750
:103A400018FB00224FF400612846FEF712FB034BDF
:103A50001B681C6438BD00BF00080140200B00201B
:103A600038B50446084D01224FF480412846FEF740
:103A700000FB00224FF400412846FEF7FAFA034B00
:103A80001B68DC6338BD00BF00100140200B002024
:103A900038B50446084D00224FF480412846FEF711
:103AA000E8FA01224FF400412846FEF7E2FA034B00
:103AB0001B68DC6338BD00BF00100140200B0020F4
:103AC00010B5144688B1012819D0022821D0032846
:103AD00029D0042812D1194B04221A600846FFF796
:103AE0008FFF2046FFF7BCFF08E0144B00221A604E
:103AF0000846FFF785FF2046FFF7B2FF10BD0F4BCA
:103B000001221A600846FFF793FF2046FFF7C0FF27
:103B1000F4E70A4B02221A600846FFF789FF2046A5
:103B2000FFF79EFFEAE7054B03221A600846FFF7FE
:103B30007FFF2046FFF794FFE0E700BF040B002063
:103B400082B00E4B9A6942F001029A619A6902F0C2
:103B500001020092009ADA6942F08052DA61DB6970
:103B600003F080530193019B054A536823F0E063FF
:103B700043F00073536002B0704700BF0010024072
:103B800000000140FEE7FEE7FEE7FEE7FEE77047C4
:103B90007047704708B5FDF7D5FD08BD08B5024868
:103BA000FEF77DFF08BD00BF680B002001207047B5
:103BB00008B503F0B7F9162303604FF0FF3008BDD6
:103BC00008B54FF0FF31FFF7F3FFFEE770B50C4685
:103BD0001646002506E0AFF30080214601F8010BF0
:103BE00001350C46B542F6DB304670BD70B50C466B
:103BF0001646002504E014F8010BFFF7FFFC013521
:103C0000B542F8DB304670BD4FF0FF3070474FF4DF
:103C100000534B6000207047012070470020704720
:103C200010B503460C4A0D490D48006840B10C48D8
:103C300000680344521A934206D8094A136010BD23
:103C40000748084C0460F2E703F06CF90C230360AA
:103C50004FF0FF30F3E700BF0050002000040000E9
:103C60000C0B0020B00C0020704700000268464B8F
:103C70009A4200D0704710B5444A1368013313606C
:103C8000434981FB0321DA17C2EBA10202EB820256
:103C9000B3EB420F3BD03D4B1A683D4981FB0231EB
:103CA000D317C3EBE10303EB8303B2EB830F03D121
:103CB000384B1B78012B40D0344B1B68364981FBB5
:103CC0000321DA17C2EB2112322101FB123212B9A1
:103CD000324A01211170304981FB0321DA17C2EB0E
:103CE0006112642101FB1232002A46D0274B1A6868
:103CF0002B4981FB0231D317C3EBE12341F2883119
:103D000001FB132313B9214B00221A6010BD254C6F
:103D100022462549254801F033FF21682448FFF752
:103D20001BFB244B186021682348FFF715FB234B2E
:103D30001860234B01221A70ADE7FDF751FC214BAF
:103D40001B68012B03D01F4B5B68012BB4D11E49AC
:103D50000B6801330B601D4880FB0320DA17C2EBB0
:103D6000A00202EBC202A3EB42030B60184B01223C
:103D70001A70084B00221A709EE74FF40051154844
:103D8000FEF77DF9B2E700BF000800401C0B0020E1
:103D900067666666B50B00201F85EB51190B002086
:103DA000AD8BDB68600C00205C0C0020580C002000
:103DB000980A0020140B0020740A0020100B002029
:103DC000180B00205C0A0020B00B0020398EE3386D
:103DD000B40B00200010014000B587B0002302930F
:103DE000039304930593009301931548154A0260C9
:103DF00041F61F42426083600922C2600361802352
:103E00008361FEF743FF90B94FF48053029302A9F8
:103E10000B48FFF73FF868B9002300930193694608
:103E20000748FFF733F940B907B05DF804FBFFF727
:103E3000F5FBE9E7FFF7F2FBEEE7FFF7EFFBF3E750
:103E4000680B00200008004000B583B00368B3F1A0
:103E5000804F05D0124A93420ED003B05DF804FBA8
:103E600003F50433DA6942F00102DA61DB6903F039
:103E700001030093009BF0E70A4BDA6942F0040269
:103E8000DA61DB6903F004030193019B0022114610
:103E90001E20FDF77BFF1E20FDF7B0FFDDE700BF12
:103EA000000800400010024000B587B000230293D4
:103EB0000393049305930368B3F1804F02D007B0D6
:103EC0005DF804FB03F504339A6942F008029A6135
:103ED0009B6903F008030193019B4FF44063029335
:103EE00002230393059302A90648FDF7A9FF064A9A
:103EF000536823F4407343F0E06343F4007353606A
:103F0000DDE700BF000C01400000014000B58FB0AC
:103F100000230A930B930C930D9308930993019339
:103F200002930393049305930693079326484FF057
:103F3000804202604360836041F61F42C2600361B9
:103F400080238361FEF7A2FE60BB4FF480530A9387
:103F50000AA91D48FEF79EFF38BB1B48FEF7C2FEAC
:103F600030BB00230893099308A91748FFF78EF880
:103F700008BB60230193322302930023039305932C
:103F8000082201A91048FEF70BFFB8B90C2201A9BD
:103F90000D48FEF705FFA0B90B48FFF785FF0FB0EE
:103FA0005DF804FBFFF73AFBCFE7FFF737FBD4E7F9
:103FB000FFF734FBD5E7FFF731FBDAE7FFF72EFB1E
:103FC000E4E7FFF72BFBE7E7200B002008B50A48E2
:103FD0000A4B03604FF4E133436000238360C36006
:103FE00003610C2242618361C361FFF715F900B9D7
:103FF00008BDFFF713FBFBE7B80B002000380140BA
:1040000008B50A480A4B03604FF4E13343600023CC
:104010008360C36003610C2242618361C361FFF767
:10402000FBF800B908BDFFF7F9FAFBE7000C002028
:104030000044004010B588B0002304930593069314
:10404000079303682F4A934204D02F4A934230D0FB
:1040500008B010BD2D4B9A6942F480429A619A696A
:1040600002F480420092009A9A6942F008029A6132
:104070009B6903F008030193019B402304930223EF
:10408000059303230793224C04A92046FDF7D8FE8D
:104090008023049300230593069304A92046FDF78B
:1040A000CFFE1C4A536843F0E06343F004035360BF
:1040B000CEE7164BDA6942F40032DA61DA6902F4CB
:1040C00000320292029A9A6942F004029A619B6954
:1040D00003F004030393039B042304930223059337
:1040E000032307930C4C04A92046FDF7A9FE0823DF
:1040F000049300230593069304A92046FDF7A0FE30
:10410000A6E700BF00380140004400400010024014
:10411000000C01400000014000080140FFF7A4FD31
:104120000B480C490C4A002302E0D458C450043315
:10413000C4188C42F9D3094A094C002301E01360EA
:104140000432A242FBD302F0F3FEFFF7ABFA704752
:1041500000000020400A002024120108400A00202C
:10416000AC0C0020FEE7000010B50B4C0122202112
:104170002046FDF77EFF012210212046FDF779FF42
:10418000002220212046FDF774FF00221021204646
:10419000FDF76FFF10BD00BF000C014010B5084CCB
:1041A000002220212046FDF764FF01221021204635
:1041B000FDF75FFF012220212046FDF75AFF10BDC9
:1041C000000C014070B50546002415E001222021B5
:1041D0001248FDF74EFF114E012210213046FDF727
:1041E00048FF002210213046FDF743FF072C0ED078
:1041F0006D00EDB20134E4B2072C0ED815F0800F3B
:10420000E4D1002220210548FDF733FFE3E7012236
:1042100020213046FDF72DFFEAE770BD000C01407C
:1042200010B50C4C012220212046FDF722FF01226F
:1042300010212046FDF71DFF20212046FDF712FF2B
:10424000044600B10124002210210248FDF711FFAD
:10425000204610BD000C014010B50B4C002220215F
:104260002046FDF706FF012210212046FDF701FF41
:10427000002210212046FDF7FCFE012220212046CD
:10428000FDF7F7FE10BD00BF000C014010B5084C53
:10429000012220212046FDF7ECFE012210212046BC
:1042A000FDF7E7FE002210212046FDF7E2FE10BDDB
:1042B000000C0140F8B507460024254606E0002220
:1042C00010211048FDF7D5FE0135EDB2072D10D8AD
:1042D0006400E4B20B4E012210213046FDF7C9FE06
:1042E00020213046FDF7BEFE0028E8D00134E4B2BC
:1042F000E5E71FB9FFF7CAFF2046F8BDFFF7ACFF9F
:10430000FAE700BF000C014070B586B0104B9A6907
:1043100042F008029A619B6903F008030193019B34
:10432000102302930326059611250395094C02A933
:104330002046FDF785FD202302930596039502A9EB
:104340002046FDF77DFDFFF729FF06B070BD00BFD9
:1043500000100240000C0140F0B583B007462C4B22
:10436000586801AB04220D21007802F014FB0028EC
:104370004BD104469DF80420D21002F01C029DF897
:104380000710C1F301131A438DF800209DF8052092
:10439000D21002F01C02C1F381031A438DF80120F0
:1043A0009DF80630DB1003F01C0301F003010B4302
:1043B0008DF8023018E007EB8405164B47F82430DF
:1043C00004E015492868FCF777FC286006F108032B
:1043D0000DEB030212F8083C013BDBB202F8083C8B
:1043E000002BEED10134E4B2022C0BD8264604F1A6
:1043F00008036B4413F8083C002BDCD1002347F87A
:104400002430EFE7002003B0F0BD0720FBE700BF3A
:10441000640000207B14AE3E1D5A843F2DE9F0431A
:1044200085B08146884601A8FFF796FF00273C46E5
:104430000DE021493046FCF7DDFD20B91F4930462B
:10444000FCF7F6FD10B10123A3401F430134022CF9
:104450002EDCA50059F8240058F82430C01A002892
:10446000B8BF4042FCF7D4FB4FF05E51FCF724FC90
:10447000064605F110030DEB030555F80C5C002111
:104480002846FCF7ADFD0028D3D129463046FCF77D
:10449000C7FC4FF07E51FCF705FB20F000400849B7
:1044A000FCF7C6FD0028D1D00123A3401F43CDE770
:1044B000384605B0BDE8F0839A99993E3333733F8F
:1044C000295C0F3E2DE9F04182B007468846374B04
:1044D000586801AB03220D21007802F05CFA002835
:1044E0005FD19DF8043003F01F038DF804309DF870
:1044F000053003F01F038DF805309DF8063003F0FA
:104500001F038DF806300026344626E02849FCF7C4
:10451000D3FB04F108030DEB030212F8043C013B4A
:10452000DBB202F8043C002BF0D101462846FCF730
:1045300077FC4FF07E51FCF7B5FA20F000401D49A2
:10454000FCF776FD40B10123A3401E4304E01A4866
:10455000DFE70123A3401E430134022C22DC57F87D
:10456000240058F82430C01A0028B8BF4042FCF795
:104570004FFB4FF05E51FCF79FFB054604F108032B
:104580006B4413F8043C002BE1D10C49FCF732FDDD
:104590000028DED10A492846FCF74AFD0028DBD076
:1045A000D7E70726304602B0BDE8F081640000205E
:1045B00054E3853F295C0F3E0000C84100002041C4
:1045C0000000D24200B583B0234B93F82430CBB126
:1045D000A0B102238DF807301F4B586819680DF100
:1045E00007030122C97B007802F0A4F948BB9DF8BB
:1045F0000720194B5A7403B05DF804FB00238DF8B3
:104600000730E9E7144B9B7AF3B110B1124B5B7C96
:10461000EBB990B101238DF807300F4B586819683A
:104620000DF107030122C97B007802F083F980B9FC
:104630009DF80720084B5A74DDE700238DF80730FA
:10464000EBE74FF0FF30D6E74FF0FF30D3E7002025
:10465000D1E74FF0FF30CEE764000020F0B589B01D
:1046600005460C46164601238DF8143000238DF8BC
:104670001530854B5868196805AB0222897C007893
:1046800002F058F9002840F0CE81C820FDF76CF800
:1046900000238DF814307C4B5868196805AB012253
:1046A000C97B007802F046F9002840F0BF81764BC4
:1046B0005868196805AB01224979007802F03AF987
:1046C000002840F0B681704B5868196805AB01228C
:1046D000897C007802F02EF9002840F0AD816A4B09
:1046E0005868196805AB0122C97D007802F022F9EB
:1046F000002840F0A481644B5868196805AB01227A
:104700000979007802F016F9002840F09B810C230B
:104710008DF814305C4B5868196805AB0122097993
:10472000007802F007F9002840F08F810F20FDF794
:104730001BF8554B9A6A527A8DF8142058681968FC
:1047400005AB01228978007802F0F4F8002840F0E7
:104750007F814D4B9A6A127A8DF814205868196837
:1047600005AB01224978007802F0E4F8002840F017
:104770007281002E79D0444B9B6A9B7A63F01F03B1
:104780008DF81430404B5868196805AB01228979BF
:10479000007802F0CFF8002840F06081002E6AD047
:1047A000394B9B6ADB7A63F01F038DF81430364B6C
:1047B0005868196805AB0122C979007802F0BAF887
:1047C000002840F04E81002E59D140238DF814303E
:1047D0002D4B5868196805AB01220979007802F061
:1047E000A9F8002840F0408178238DF81430264B3A
:1047F0005868196805AB01224979007802F09AF8E7
:10480000002840F034813220FCF7AEFF00238DF801
:1048100014301D4B5868196805AB0122497900789E
:1048200002F088F8002840F02581174B5868196875
:1048300005AB0222897A007802F0ADF8064600281E
:1048400040F01B819DF814309DF8157047EA03274E
:104850000E4BA3FB0737C7F3C7070023AB606B60A2
:104860002B60A360636023605CE0074B9B6A9B7ACC
:104870008DF8143086E718238DF8143097E7C82098
:10488000FCF772FFA1E700BF64000020ABAAAAAA50
:104890009DF814309DF8151041EA032109B2ADF8D6
:1048A00004109DF816309DF8172042EA032212B238
:1048B000ADF806209DF818009DF8193043EA002352
:1048C0001BB2ADF8083020680144216061680A44D9
:1048D0006260A2681344A3609DF81A309DF81B1013
:1048E00041EA032109B2ADF80C109DF81C309DF887
:1048F0001D2042EA032212B2ADF80E209DF81E00E0
:104900009DF81F3043EA00231BB2ADF81030286831
:104910000144296069680A446A60AA681344AB606C
:104920000136F6B2BE420ED2554B5868196805AB37
:104930000C22C97A007802F02EF80028A8D04FF097
:10494000FF3009B0F0BD2968832200230804091450
:10495000FCF7BEFB00263A463346FCF7B9FB28605D
:1049600069688322002308040914FCF7B1FB3A4666
:104970003346FCF7ADFB6860A96883220023080476
:104980000914FCF7A5FB3A463346FCF7A1FBA860E7
:104990002068031400041946B3422DDBC00A3A46CE
:1049A000334640EA4150C912FCF792FB2060606830
:1049B000031400041946002B24DBC00A3A46334690
:1049C00040EA4150C912FCF783FB6060A068031401
:1049D00000041946002B1BDBC00A3A46334640EA66
:1049E0004150C912FCF774FBA060002816DDA0F549
:1049F0008030A0600020A4E740F2FF72801843F1ED
:104A00000001CBE740F2FF72801843F10001D4E7C8
:104A100040F2FF72801843F10001DDE700F58030BD
:104A2000A06000208DE74FF0FF308AE74FF0FF30A5
:104A300087E74FF0FF3084E74FF0FF3081E74FF01A
:104A4000FF307EE74FF0FF307BE74FF0FF3078E735
:104A50004FF0FF3075E74FF0FF3072E74FF0FF3057
:104A60006FE74FF0FF306CE74FF0FF3069E74FF032
:104A7000FF3066E74FF0FF3063E74FF0FF3060E74D
:104A8000640000207C4B9B7A002B00F0D48000B5A2
:104A900083B000238DF80730774B586819680DF103
:104AA00007030122C97B007801F044FF002840F091
:104AB000C580714B586819680DF1070301224979C7
:104AC000007801F037FF002840F0BB806A4B58683F
:104AD00019680DF1070301220979007801F02AFF16
:104AE000002840F0B180644B93F82430002B52D062
:104AF0000C238DF80730604B586819680DF10703D7
:104B000001220979007801F015FF002840F09F800C
:104B10003220FCF729FEC0238DF80730564B9B7AD4
:104B200013F0010F02D0E0238DF80730524B586884
:104B300019680DF1070301220979007801F0FAFEE6
:104B4000002840F087804C4B5B7C03B302238DF838
:104B50000730494B586819680DF107030122C97BDA
:104B6000007801F0E7FE002877D100238DF80730A8
:104B7000414B586819680DF1070301224979007803
:104B800001F0D8FE00286BD103B05DF804FB0023D0
:104B90008DF80730DDE704238DF80730364B586871
:104BA00019680DF1070301220979007801F0C2FEAE
:104BB000002858D1304B9B7C23B92F4B9B7A13F0A4
:104BC000010F30D140238DF807302B4B58681968FE
:104BD0000DF1070301220979007801F0ABFE0028EE
:104BE00044D13220FCF7C0FD234B5B7CFBB1012399
:104BF0008DF80730204B586819680DF10703012222
:104C0000C97B007801F096FE98BB1B4B586853F89F
:104C1000101B01224979007801F08CFE0028B3D0E6
:104C20004FF0FF30B0E760238DF80730CDE7002369
:104C30008DF80730DEE74FF0FF3070474FF0FF3060
:104C4000A2E74FF0FF309FE74FF0FF309CE74FF0B7
:104C5000FF3099E74FF0FF3096E74FF0FF3093E7D2
:104C60004FF0FF3090E74FF0FF308DE74FF0FF300F
:104C70008AE74FF0FF3087E7640000200D4B1B7A76
:104C8000032B13D8DFE803F002060A0EFA23038091
:104C9000002070474FF4FA730380F9E74FF47A73FA
:104CA0000380F5E74FF4FA630380F1E70023038004
:104CB000EEE700BF64000020244B9B7A002B3CD021
:104CC00000B583B0B0F57A7F33D00BD8FA2813D073
:104CD000B0F5FA7F03D108238DF807300FE04FF0CD
:104CE000FF3023E0B0F5FA6F03D118238DF80730B9
:104CF00005E04FF0FF3019E000238DF80730134B2B
:104D00001B7A9DF80720B3EBD20F19D00F4B5868D0
:104D100019680DF1070301228979007801F00AFE74
:104D200080B99DF80730DB08084A137203B05DF8BC
:104D300004FB10238DF80730E1E74FF0FF30704798
:104D40000020F3E74FF0FF30F0E700BF64000020E1
:104D50000F4B5B7A032B16D8DFE803F0020C0F121F
:104D6000022303700A4BDB7C83B103785B00037082
:104D70000020704704230370F4E708230370F1E771
:104D800010230370EEE74FF0FF30704700207047AC
:104D900064000020234B9B7A002B35D000B583B0F4
:104DA00002380E2833D8DFE800F0083223323232DE
:104DB00027323232323232322B0000238DF8073064
:104DC000184B5B7A9DF80720B3EBD20F24D0154B1C
:104DD000586819680DF107030122C979007801F0BC
:104DE000A9FDD8B99DF80730DB080E4A537210E0D0
:104DF00008238DF80730E3E710238DF80730DFE74D
:104E000018238DF80730DBE74FF0FF3070474FF085
:104E1000FF3003B05DF804FB0020FAE74FF0FF30ED
:104E2000F7E700BF640000200F4BDB7A013B052B46
:104E300017D8DFE803F003070A0D1013BC23038023
:104E40000020704762230380FAE72A230380F7E7F4
:104E500014230380F4E70A230380F1E7052303808A
:104E6000EEE700230380EBE764000020234B9B7AEE
:104E7000002B3AD000B583B0BB281AD901238DF896
:104E800007301E4BDA7A9DF807309A4230D01B4B20
:104E9000586819680DF1070301228978007801F03C
:104EA00049FD38BB9DF80720144BDA7203B05DF85A
:104EB00004FB612803D902238DF80730E1E7292894
:104EC00003D903238DF80730DBE7132803D9042324
:104ED0008DF80730D5E7092803D905238DF8073069
:104EE000CFE706238DF80730CBE74FF0FF30704750
:104EF0000020DBE74FF0FF30D8E700BF6400002060
:104F0000054B93F8243023B9034BDB890380002041
:104F100070474FF0FF307047640000200D4B1B7A44
:104F2000032B13D8DFE803F002060A0E0A4B0360D6
:104F300000207047094B036000207047084B036056
:104F400000207047074B0360002070474FF0FF3090
:104F5000704700BF6400002000000343000083424C
:104F60003333034233338341114B5B7A032B1AD81B
:104F7000DFE803F0020D11154FF4804303800C4B62
:104F8000DB7C9BB103885B0803800020704741F6FF
:104F90009C730380F3E74FF480530380EFE74FF4F3
:104FA00000630380EBE74FF0FF307047002070474D
:104FB00064000020024B1B7C03700020704700BF80
:104FC0006400002070B5174B93F824302BBB00F021
:104FD000FE04144B9B7A13B3124A167C23401374BD
:104FE000A3420BD04FF0FF3514B90E4B1B7D3BB1E4
:104FF0000120FFF7E7FA3CB9284670BD0025F3E72A
:105000000020FFF7DFFAF6E7FFF73CFD0028F3D0BA
:10501000044B1E744FF0FF35EEE70025ECE74FF030
:10502000FF35E9E7640000202E4B93F82430002B75
:1050300049D0F0B583B005460F461646294B9B7AFA
:10504000002B43D0274B5868196801AB0222897A9C
:10505000007801F0A0FC00283BD19DF804009DF8E9
:10506000054044EA0024AC4223D31E4B58684388D1
:10507000B4EB530F0DD91B4B196801AB0122497CCE
:10508000007801F088FC38BB9DF8043013F0100F55
:1050900014D1144B586819683B46EAB2C97A0078B3
:1050A00001F079FCD8B9B4FBF5F4013C347003B0DD
:1050B000F0BD002333704FF0FF30F8E7FFF7E2FC5C
:1050C0006FF00100F3E74FF0FF3070474FF0FF3013
:1050D000EDE74FF0FF30EAE74FF0FF30E7E74FF042
:1050E000FF30E4E764000020584B9B7C834200F0D3
:1050F0009C8010B582B00446002844D0534B5868B9
:1051000019680DF1070301220979007801F043FCC9
:10511000002840F08C809DF8073023F020038DF8A4
:1051200007304A4B586819680DF1070301220979C5
:10513000007801F0FFFB00287CD10320FCF714FB72
:1051400002238DF80730414B93F8223013B18223AC
:105150008DF807303D4B93F823302BB19DF8073085
:1051600043F030038DF80730384B586819680DF15B
:1051700007030122097D007801F0DCFB002844D000
:105180004FF0FF3044E0314B586819680DF10703C8
:1051900001220979007801F0FEFB00284DD12B4B4C
:1051A0009B7A13F0010F35D09DF8073043F02003B0
:1051B0008DF80730254B586819680DF10703012257
:1051C0000979007801F0B6FB002839D10320FCF7FB
:1051D000CBFA1E4B93F822301BB380238DF8073097
:1051E0001A4B93F823302BB19DF8073043F030036E
:1051F0008DF80730154B586819680DF10703012227
:10520000097D007801F096FBE8B9104B9C740020F2
:1052100002B010BD9DF8073023F020038DF8073051
:10522000C8E700238DF80730DAE7002070474FF019
:10523000FF30EDE74FF0FF30EAE74FF0FF30E7E7F0
:105240004FF0FF30E4E74FF0FF30E1E7640000206B
:105250001B4B93F8233083422DD010B582B0044607
:1052600028B330238DF80730154B9B7C2BB19DF86C
:10527000073043F002038DF80730114B93F82230CA
:105280002BB19DF8073063F07F038DF807300C4B8E
:10529000586819680DF107030122097D007801F0B3
:1052A00049FB50B9064B83F8234002B010BD0023E0
:1052B0008DF80730D8E7002070474FF0FF30F4E753
:1052C0006400002028285FD810B582B00446B8B921
:1052D0000020FFF7BDFF00238DF8043007238DF871
:1052E00005302E4B5868196801AB0222897C007882
:1052F00001F020FB00284AD1284B187502B010BDE0
:105300000120FFF7A5FF20238DF80430012C26D0C3
:10531000052C2BD9142C30D802238DF805300A2007
:10532000FFF7A4FD9DF805309B0143F007038DF8BE
:1053300005301A4B5868196801AB0222897C007845
:1053400001F0F8FA30BB154B08229A7200241C7346
:1053500001221A752046FFF735FE2046CEE70023CE
:105360008DF805300520FFF781FDDBE701238DF87F
:1053700005300520FFF77AFDD4E703238DF80530CB
:105380001420FFF773FDCDE74FF0FF3070474FF06B
:10539000FF30B3E74FF0FF30B0E700BF64000020FC
:1053A000264B9B7A002B40D010B582B00446234B8D
:1053B00093F82430002B3BD1204B1B7D33B1431E8F
:1053C0009BB2272B0AD90020FFF77CFF032C0AD9B8
:1053D000B4F57A7F08D94FF47A7405E0C0B2FFF7CC
:1053E00071FF00201FE004244FF47A7090FBF4F466
:1053F000013C8DF80740114B586819680DF10703FF
:1054000001224978007801F095FAA0B99DF80700CB
:10541000431C4FF47A7090FBF3F0084BD88140089E
:10542000FFF724FD002002B010BD4FF0FF307047A1
:105430004FF0FF30F7E74FF0FF30F4E76400002053
:1054400010B582B0044610F0700F50D001238DF8D3
:105450000730334B586819680DF107030122897C26
:10546000007801F067FA00284AD19DF8073003F070
:10547000BF032B4A137300238DF8073014F0400F3D
:1054800002D104238DF8073014F0200F05D19DF8C8
:10549000073043F002038DF8073014F0100F05D1E8
:1054A0009DF8073043F001038DF8073014F0080F22
:1054B00005D19DF8073043F038038DF80730184BBD
:1054C000586819680DF107030122C97C007801F0C2
:1054D00031FAD8B90CB1082C1ED1114B9C720024A2
:1054E0001C753220FCF740F9204602B010BD18B1FF
:1054F00000238DF80730ACE740238DF80730A8E78C
:10550000074B00229A724FF0FF30EEE7044B002267
:105510009A724FF0FF30E8E70020FFF799FEDCE7D2
:105520006400002010B582B080238DF80030674BF6
:10553000586819686B460122897C007801F0FAF9F5
:10554000002840F0A4806420FCF70EF900238DF8B9
:1055500000305E4B586819686B460122897C0078E0
:1055600001F0E8F9002840F09580584B5868196818
:105570006B460622897D007801F00DFA002840F084
:105580008C809DF80510890001F004019DF803301E
:105590005B0003F0020319439DF9013003F001039E
:1055A000194352D0012946D0022948D1474B002245
:1055B000DA74464BFF229A721A725A72DA724FF6F6
:1055C000FF71D9811A749A7401221A7383F8222008
:1055D000002283F823205A751A75C3F81620C3F8E1
:1055E0001A20C3F81E2083F8242083F82520DA84AB
:1055F0004FF4FA60FFF760FB002854D10220FFF758
:10560000C9FB002852D12A20FFF730FC002850D1D6
:105610003220FFF7C5FE00284ED1FFF7D3FC00284B
:105620004DD1FFF761FD044600284BD1FFF708FF7D
:10563000204602B010BD254B0122DA74B9E7244898
:1056400001F020FD4FF0FF34F2E7204B5868196855
:105650006B460122C978007801F09DF900BB9DF8E6
:10566000003013F00F0305D0042B09D0174B002294
:10567000DA749EE7174801F067FD4FF0FF34D7E773
:10568000154801F061FD114B0122DA7491E74FF0EA
:10569000FF34CDE74FF0FF34CAE74FF0FF34C7E7E0
:1056A0004FF0FF34C4E74FF0FF34C1E74FF0FF3451
:1056B000BEE74FF0FF34BBE74FF0FF34B8E74FF0E1
:1056C000FF34B5E74FF0FF34B2E700BF64000020BD
:1056D00054F800087CF80008C8F800083AB370B520
:1056E00082B00C461646194B9B7A1BB3030A8DF801
:1056F0000430C0B28DF805000844144B5D686B8916
:1057000098421ADC114B196801AB0222097E2878F5
:1057100001F010F9A0B90D4B586819683346E2B290
:10572000497D007801F006F968B902B070BD4FF00C
:10573000FF3070474FF0FF30F7E74FF0FF30F4E7EE
:105740004FF0FF30F1E74FF0FF30EEE7640000204C
:105750003AB370B582B00C461646194B9B7A1BB310
:10576000030A8DF80430C0B28DF805000844144BCC
:105770005D686B8998421ADC114B196801AB0222F3
:10578000097E287801F0D6F8A0B90D4B5868196841
:105790003346E2B2497D007801F0FDF868B902B005
:1057A00070BD4FF0FF3070474FF0FF30F7E74FF01C
:1057B000FF30F4E74FF0FF30F1E74FF0FF30EEE756
:1057C000640000202DE9F04F87B09A46294B93F8EA
:1057D0002530002B3CD107468846914600293AD017
:1057E0000024BC421BD23E1B102EA8BF1026B5B20F
:1057F00008EB040B5A4629462046FFF76FFF68BBAB
:1058000002AA29462046FFF7A3FF50BB2A4602A959
:10581000584601F0B1FB38BB2C44A4B2E1E74FEA93
:1058200019238DF804308DF80590124B58681968CB
:1058300001AB0222897E007801F07CF8B8B90D4BEB
:10584000012283F82520A3F826A007B0BDE8F08F39
:105850004FF0FF30F9E74FF0FF30F6E74FF0FF3041
:10586000F3E74FF0FF30F0E76FF00100EDE74FF0A6
:10587000FF30EAE764000020234B93F82430834292
:105880003CD030B583B018B31F4B93F82530002BB4
:1058900036D00020FEF796FE0020FFF725FC1A4DBB
:1058A000E88CFFF77DFD00248DF8074068680DF156
:1058B000070301222321007801F03CF8012085F83C
:1058C0002400FEF77FFEFFF7DDF8204603B030BD71
:1058D0000020FEF777FE0C4D2B7C8DF807306868B2
:1058E0000DF1070301222321007801F023F80024A1
:1058F00085F82440FFF7C6F82046E7E70020704708
:105900004FF0FF30E2E700BF640000202DE9F041D6
:1059100088B005460E463D4B93F82470FFB901A8A8
:10592000FFF7ACF90DF10700FFF712FA6846FFF731
:105930007BFA0DF10200FFF7E3FA344B93F80A808B
:105940000DF10600FFF736FB0024012C0CDC0022D1
:1059500031462846FEF782FE30B10134F5E70020DB
:10596000FFF78AFF0127DAE7022C1FD00024012C61
:1059700007DC012202A905A8FEF770FE08B1013478
:10598000F5E7022C14D002A93046FEF747FDC6B257
:1059900005A92846FEF796FD10F0FF0F04D000245D
:1059A0003EB944F0020404E00124F9E7002400E0D9
:1059B0000024164BFF221A725A72DA724FF6FF71E8
:1059C000D9819A721A7401221A73BDF80400FFF784
:1059D00073F99DF80700FFF7DDF9BDF80000FFF748
:1059E00045FABDF80200FFF7DBFC4046FFF728FD53
:1059F0009DF80600FFF7E6FA1FB9204608B0BDE89B
:105A0000F0810120FFF738FFF7E700BF64000020B6
:105A100010B588B002A905A8FFF778FF032802D0C7
:105A2000012008B010BD01A8FFF778FA019C059885
:105A3000FBF7EEF82146FBF73FF9FBF703FB059078
:105A40000698FBF7E5F82146FBF736F9FBF7FAFA7B
:105A500006900798FBF7DCF82146FBF72DF9FBF7DA
:105A6000F1FA079005A800F03FFA0DF10200FFF7E8
:105A70007BFA0024ADF8024002940394049402A837
:105A800000F0BAFA2046CCE790F90030002B01DD97
:105A9000002070470FDB90F90130002B01DD012061
:105AA00070470ADB90F90230002B08DC01DB07208D
:105AB0007047062070470420704705207047022079
:105AC000704738B50546FFF7DFFF0446E81CFFF7CF
:105AD000DBFF44EAC00424B2A81DFFF7D5FF44EA67
